:020000040800F2
:1000000000000220D57A0008557A0008597A0008C5
:100010005D7A0008617A0008657A00080000000037
:10002000000000000000000000000000697A0008E5
:100030006D7A000800000000717A0008757A0008E7
:10004000257B0008257B0008257B0008257B000810
:10005000257B0008257B0008257B0008257B000800
:10006000257B0008257B0008257B0008257B0008F0
:10007000257B0008257B0008257B0008257B0008E0
:10008000257B0008257B0008257B0008257B0008D0
:10009000257B0008257B0008257B0008257B0008C0
:1000A000257B0008257B0008257B0008257B0008B0
:1000B000257B0008257B0008257B0008257B0008A0
:1000C000257B0008257B0008257B0008257B000890
:1000D000257B0008257B0008257B0008257B000880
:1000E000257B0008257B0008257B0008257B000870
:1000F000257B0008257B0008257B0008257B000860
:10010000257B0008257B0008257B0008257B00084F
:10011000257B0008257B0008257B0008257B00083F
:10012000257B0008257B0008257B0008257B00082F
:10013000257B0008257B0008257B0008257B00081F
:10014000257B0008257B0008257B0008257B00080F
:10015000257B0008257B0008257B0008257B0008FF
:10016000257B0008257B0008257B0008257B0008EF
:10017000257B0008257B0008257B00080000000087
:08018000257B0008257B000827
:1001900010B5054C237833B9044B13B10448AFF3C1
:1001A00000800123237010BDE40000200000000047
:1001B000A483000808B5034B1BB103490348AFF300
:1001C000008008BD00000000E8000020A4830008B3
:1001D00053B94AB9002908BF00281CBF4FF0FF31AE
:1001E0004FF0FF3000F072B9ADF1080C6DE904CEAC
:1001F00000F006F8DDF804E0DDE9022304B0704702
:100200002DE9F047089E04468846002B4BD18A42D0
:10021000154667D9B2FA82F24AB1C2F1200701FA53
:1002200002F320FA07F7954047EA030894404FEAA3
:10023000154E230CB8FBFEF71FFA85FC0EFB178842
:1002400043EA084307FB0CF1994209D9EB1807F17F
:10025000FF3080F01B81994240F21881023F2B440D
:100260005B1AA4B2B3FBFEF00EFB103344EA034466
:1002700000FB0CFCA44509D92C1900F1FF3380F0D8
:100280000781A44540F2048102382C4440EA07402B
:10029000A4EB0C0400271EB1D4400023C6E90043A0
:1002A0003946BDE8F0878B4209D9002E00F0EB807B
:1002B0000027C6E9000138463946BDE8F087B3FAA1
:1002C00083F7002F47D18B4202D3824200F2FA809B
:1002D000841A61EB030301209846002EE0D0C6E9A2
:1002E0000048DDE702B9FFDEB2FA82F2002A40F0F0
:1002F0008F80491B4FEA154E1FFA85F80127B1FB85
:10030000FEFC230C0EFB1C1143EA014308FB0CF11D
:10031000994207D9EB180CF1FF3002D2994200F252
:10032000CD808446591AA3B2B1FBFEF00EFB101427
:1003300043EA044408FB00F8A04507D92C1900F152
:10034000FF3302D2A04500F2B6801846A4EB0804A1
:1003500040EA0C409FE7C7F1200CBB4022FA0CFE9C
:100360004EEA030E01FA07F420FA0CF521FA0CF319
:100370004FEA1E482543B3FBF8F92C0C08FB193350
:100380001FFA8EFA44EA034309FB0AF49C4202FA7C
:1003900007F200FA07F10BD91EEB030309F1FF3056
:1003A00080F087809C4240F28480A9F10209734466
:1003B0001B1BADB2B3FBF8F008FB103345EA034456
:1003C00000FB0AFAA24508D91EEB040400F1FF3332
:1003D0006BD2A24569D90238744440EA0940A0FBB7
:1003E0000289A4EB0A044C45C2464B4654D351D073
:1003F000002E69D0B1EB0A0564EB030404FA0CFC8F
:10040000FD40FC404CEA0505C6E90054002747E7DB
:10041000C2F1200320FA03F7954001FA02F021FA15
:1004200003F34FEA154E3843010CB3FBFEF71FFAF6
:1004300085F80EFB173341EA034107FB08F38B42B3
:1004400004FA02F407D9691807F1FF3C2FD28B4256
:100450002DD9023F2944CB1A81B2B3FBFEF00EFB2B
:10046000103341EA034100FB08F38B4207D96918B6
:1004700000F1FF3C17D28B4215D902382944C91A22
:1004800040EA07473BE73746304609E70746E7E6D5
:100490001846FBE64145ABD2B8EB020A69EB0E0207
:1004A00001381346A4E76046E9E7184695E7674632
:1004B000D1E781467CE702382C4447E7ACF1020CD7
:1004C0002B442FE7384608E73746E9E6704700BF78
:1004D000034613F8012B002AFBD1181A0138704784
:1004E00001F0FF01102A2BDB10F0070F08D010F8E5
:1004F000013B013A8B422DD010F0070F42B3F6D1E9
:10050000F0B441EA012141EA014122F007047FF001
:1005100000070023F0E80256083C85EA010586EA58
:10052000010685FA47F5A3FA87F586FA47F6A5FA94
:1005300087F68EB9EED1F0BC01F0FF0102F00702A0
:1005400032B110F8013B013A83EA010313B1F8D14B
:100550000020704701387047002D06BF354603382C
:10056000073815F0010F07D1013015F4807F02BF65
:10057000013015F4C03F0130F0BC0138704700BFB6
:100580002DE9F04FADF50D7D0026BDF858420290E3
:100590000D46979801943146914698460B9605F082
:1005A000F9FD0BAB97980CA94FF4007205F09CFB7A
:1005B0009DF840309DF83EA09DF83F70002B37D04D
:1005C000012B03D00DF50D7DBDE8F08F9DF8413076
:1005D0000393002BF6D0013BDBB24FF0160B0BEB75
:1005E000830B12242146979805F0D4FD0BAB04220F
:1005F0000CA9979805F078FB9DF833209DF83210F0
:100600009DF831009DF8303041EA022143EA002391
:100610004A1CD21A4B4504F10404324401D849451E
:100620005BD2A34596B2DDD10DF50D7DBDE8F08F0F
:100630000AF10701C91009FB01F107FB01F11131B2
:10064000979805F0A7FD0BAB0AFB07F20CA997984A
:1006500005F04AFB002FB5D0BAF1080F28BF4FF0C4
:10066000080A0AF1FF3313F0FF03ABD0013F9BB23E
:10067000AAF10202D2B25FFA87FA5F1EBF1A029A8B
:10068000DDF804B00AF1010A1344AA4417441FFA22
:1006900083F91FFA8AFA0CAEBFB2CDF8049016F8AF
:1006A000019B019C19F0010F204608BF204604F170
:1006B000FF344246294604BF5A462946A4B200F0F8
:1006C00077FAA7424FEA5909ECD10135ADB2AA45F4
:1006D000E5D10DF50D7DBDE8F08F0AF107024E441E
:1006E000D410F31A039A979806949BB2122104FB34
:1006F00003F301EB820107FB031105F04BFD07FB40
:1007000004F20BAB0CA99798BFB205F0EDFA002FDD
:100710003FF458AF2F44BBB208931FFA8AF30993F2
:100720009DF81830079300230593029B013B049327
:10073000059ADDF81CA0099E0CAB134403930AF143
:10074000FF3A5FFA8AFABAF1FF0F3BD0039B16F02B
:10075000070213F80AB03FD002F0FF09002AEED0DA
:10076000C9F108024BFA02F309F1FF395FFA83FB82
:100770005FFA89F9049BF718029B1FFA89F9A7EB26
:100780000907F418BFB2A4B21BF0010F204608BF3E
:10079000204604F1FF344246294604BF019A294607
:1007A000A4B200F005FABC424FEA5B0BECD10AF1AF
:1007B000FF3A013E5FFA8AFAA6EB0906BAF1FF0F8B
:1007C000B6B2C3D1DDE90532134401350593089B68
:1007D000ADB2AB42ACD1F5E64FF00709CAE700BFB6
:1007E0002DE9F04F0646ADF50F7D10469A4690462E
:1007F0008B46FFF76DFEBDF860320393C5B200244F
:100800000DF11009002D41D018F8042082F080036A
:100810001F2B08EB040740D902F12003DBB21C2B8D
:100820003BD9012C09D917F8023C83F080011F291C
:1008300003D92033DBB21C2B06D8012233494846AA
:1008400005F038F928BB3A78039B00935946534684
:100850003046CDF80490FFF793FE4046FFF738FE90
:100860000134844208D87B7883F080021F2A03D9A0
:100870002033DBB21C2B02D8484605F0F1FB013DCA
:100880000936EDB2B6B2A4B2002DBDD1484605F08E
:10089000E7FB0DF50F7DBDE8F08F012C09D917F8A6
:1008A000023C83F080011F290BD92033DBB21C2BC3
:1008B00007D901221649484605F0FCF80028E8D17E
:1008C0003A787B780399009143EA022259465346CD
:1008D0003046CDF80490FFF753FE4046FFF7F8FD91
:1008E0000234844208D8BB7883F080021F2A06D9DC
:1008F0002033DBB21C2B02D9484605F0B1FB113680
:10090000023DB6B2EDB2A4B27CE700BFA872010806
:100910009872010830B5184B184A1A604FF4827269
:1009200087B04FF4007530240A215A60184600221F
:10093000C3E90654D962C3E90222C3E90422C3E928
:1009400008229A6201F028FA18B11F210C4806F01B
:100950007DFF00230224012501A90A48CDE90333C4
:10096000CDE9014500F0DCFD2A462146054800F0AE
:10097000F9FE07B030BD00BF2C0200200038004057
:10098000B4720108000802402DE9F04383B09323BC
:1009900006460022022165488DF8033000F0E2FE91
:1009A000634C204601F0F0FF0228FAD0604864232F
:1009B00001220DF10301044601F02EFA204601F058
:1009C000E3FF0228FAD05A48642301A90222044610
:1009D00001F09EFB01220221544800F0C3FED32304
:1009E0000022022151488DF802309DF804809DF8C4
:1009F000055000F0B7FE204601F0C6FF0228FAD0ED
:100A00004B48642301220DF10201044601F004FA6F
:100A1000204601F0B9FF0228FAD04548642302229B
:100A200001A9044601F074FB012202213F4800F0B5
:100A300099FEB323002202213C488DF801309DF835
:100A400004909DF8057000F08DFE204601F09CFF9B
:100A50000228FAD00122364864230DEB0201044635
:100A600001F0DAF9204601F08FFF0228FAD0642362
:100A700001A902222E4801F04BFB012202212B4842
:100A800000F070FE9DF805309DF80420DB0843EA75
:100A900042130A2B9AB244DDED0845EA481540F6A8
:100AA00064739D4232DCC02D38BFC025C03DC5EB0C
:100AB00005132049C5EB43139B08FF08A1FB031353
:100AC00047EA491940F2DF11A1EB1323B9F5706F22
:100AD0009BB223DCB9F1810F38BF4FF08109A9F136
:100AE0008109154909EB8900C9EB8019A1FB091996
:100AF00040F23F11A1EBD9291FFA89F93046338022
:100B0000A6F80290B28003B0BDE8F083FF0847EA80
:100B10004919B9F5706F4FF00003DBDD4FF00009A4
:100B2000ECE742F20F794B46E8E700BF00080240CD
:100B30002C0200201D3FF1455989478D2DE9F041D8
:100B4000CF181A4CBDF8185086184FF0C04CBFB2E1
:100B50004FEA112EB6B2C9B24FF02A0803FB02F3D6
:100B60003A0AACF80080FFB2A4F800E04FF02B087E
:100B700021804FEA102E2280310AC0B2F6B22C2218
:100B80002780ACF80080A4F800E020802180268037
:100B9000ACF8002043B12146EAB22C0A0020013013
:100BA00098420C800A80FAD1BDE8F0810000026012
:100BB0004B1CF0B59BB24FF0C0461F0ADDB22A2392
:100BC0003380441C0F4B4FEA112CA4B2C9B2A3F8D6
:100BD00000C04FF02B0E19804FEA102C1F80110A15
:100BE0001D80270AC0B2E4B22C25D2B2A6F800E0DC
:100BF000A3F800C018801F801C80358019801A80DF
:100C0000F0BD00BF000002602DE9F04F85B0044642
:100C1000019010188442CDE90201BDF8382041DA74
:100C200003EB010A51454FEA122B3BDAD2B21F4BBC
:100C300000924FF0C044BDF804C003980CF10107C6
:100C4000BFB24FEA17294FEA1C28FFB25FFA8CFCAB
:100C50004FF02A0E81B24A1C92B2150A0E0AD2B285
:100C6000C9B2A4F800E01E8019801D801A804FF0E0
:100C70002B02228001304FF02C02A3F80080504557
:100C8000A3F800C0A3F800901F802280BDF80020C8
:100C9000A3F800B01A80DDD1019A029901328A428C
:100CA0000192C8D105B0BDE8F08F00BF000002601E
:100CB0002DE9F04F05308FB080B20990180ADBB2F1
:100CC0000693130A04930B4608330D93189BDFF821
:100CD000048105900A910C920B931846FFF7F8FBDC
:100CE0000B9B189A9B1A98426ED90B9A12F8013BEB
:100CF0000B92099A571F364A03EB8303D3180793C5
:100D0000BDF8343002939DF830300393BFB2079A98
:100D10007B1C9BB212F8010B07921A0A08935FFA28
:100D200083FB4FEA172A0192FFB20A9B4FF0C041A2
:100D30004FF02A094FF02B0E4FF02C0C0DE0BDF8B0
:100D40001030A8F80030BDF80C30A8F80030134679
:100D5000029A9A424FEA50002DD05A1C92B21E0AB3
:100D6000DBB2A1F80090150AA8F80060D4B2A8F888
:100D70000030BDF80430A8F80050A8F80040A1F8F1
:100D800000E0A8F800A0A8F80070A8F80030C30799
:100D9000A8F800B0A1F800C0D1D4BDF81430A8F86C
:100DA0000030BDF81830A8F800301346029A9A4275
:100DB0004FEA5000D1D1DDE908739F42A7D1063335
:100DC0009BB20993189889E70FB0BDE8F08F00BF78
:100DD000BC830008000002602DE9F84F4FF0C045C9
:100DE00001274FF0110832202F80694C00F012FBD0
:100DF0003220A5F8008000F00DFB002613224FF0F2
:100E00000E0C4FF0E00A15234FF0060B4FF0090EC1
:100E1000A5F800A04FF03A092680AC21A4F800C044
:100E20004F202380A4F800B0052322804FF00D0B43
:100E3000A4F800E04FF00B0EA4F800902180208071
:100E4000332123803B20A4F800B0A4F800E04FF049
:100E50000F0B4FF0E10E218020801621A4F800B086
:100E6000A5F800E04FF0080E2680A4F800C021800D
:100E70004FF09A0C238050212280A4F800E04FF01C
:100E80000A0E2080A4F800C0312021804FF0360CDB
:100E9000A4F800E0C02122804FF0100EC122A4F877
:100EA00000B02080A4F800C04420A4F800B029803D
:100EB0004FF0C50BA4F800E08021A4F800E02A80E0
:100EC00048222080A5F800B0B02026804FF0B10B5A
:100ED000A4F800E021804FF0B40EA5F800C0022174
:100EE00022804FF0B60CA5F80090222223804FF00C
:100EF000B709C62328802680A5F800B020804FF0CF
:100F0000BE0BA4F800800420A5F800E021804FF07B
:100F1000E90EA5F800C021804FF0F70C2280A9212E
:100F2000A5F80090512223804FF02C098223A5F8C8
:100F300000B026802080A5F800E078202680A5F863
:100F400000C021802280A4F800902380A5F80080B2
:100F500000F060FA29222A234FF0400C2B202A802F
:100F600031462B80224626804FF416332680278078
:100F7000A4F800C02880268026802780A4F800A03E
:100F8000A5F80090013B11801180FBD1BDE8F88FDE
:100F9000000002602DE9F04FADF23C4D15460EAC5D
:100FA00006460F461046002105F0F4F80DAB284622
:100FB00021464FF4806204F097FE2378422B03D041
:100FC0000DF23C4DBDE8F08F63784D2BF8D1E27BFC
:100FD000A37B43EA0223282BF2D1E27EA37E43EADD
:100FE0000223012BECD1627F237F43EA0223182BDB
:100FF000E6D1D4F81E30002BE2D1D4F81210D4F888
:101000000A2003920029B8BF4942B1F5F07F10468B
:101010000791D4F80220D3DCD4F816100029B8BF09
:101020004942B1F5A07FCBDC121A791807980291DA
:10103000CDE90033910A0691DFF880A10493C2F351
:10104000090100F00302CDE908250B911F469846DF
:101050001D46DDF824900399484605F09BF80DAB3A
:101060004FF480624846214604F03EFE069B049AF7
:10107000934218BF4FF4806900F09B80089B002BBF
:1010800048D1079B0596013BA3460A930FE0FFF763
:101090008FFD0A9B984508F1010800F081801FFA36
:1010A00088F8ABEB04034B4507F1010721D2AAFBFB
:1010B00007235B0803EB4303FB1A012B1BF801CB4F
:1010C00023D00599019A009E08EB010002994FEA8E
:1010D000920EEA0842EA4E12891B4FEADC0E022BFE
:1010E00042EACE2289B280B2D1D06546ABEB04038E
:1010F000D9E7059E039A049B02F580620392069A43
:1011000001339A420493A4D25AE7CDF804C0ABEB62
:101110000403C8E7079B0596013B4FF0000B0A93B9
:101120000EE0FFF745FD0A9B984530D008F1010815
:101130001FFA88F80BF1010BCB4507F10107D8D254
:10114000AAFB07235B0803EB4303FB1A012B14F8EC
:101150000BC017D00599019A009E08EB0100029977
:101160004FEA920EEA0842EA4E12891B4FEADC0E61
:10117000022B42EACE2289B280B2D2D00BF1010B0F
:101180006546D9E70BF1010BCDF804C0D4E7009B0D
:1011900001339BB20093089B4FF000089B44CBE7C0
:1011A000009B01339BB200934FF00008ABEB0403AC
:1011B00079E70B9B002B9DD099465FE7ABAAAAAAC3
:1011C0002DE9F04385B04FF6FF730093814640F25E
:1011D0003F1340F2DF126A210020FFF715FD6A2459
:1011E0000025214635340095012340F2DF1200200E
:1011F000A4B2FFF709FDB4F59F7FF2D10024254684
:1012000020462234009540F23F1301226A21A4B205
:10121000FFF7FAFCB4F5EE7FF2D1154BDFF85480FE
:10122000C9EBC90903EB490909F1FF396C264FF6EF
:10123000FF774D46022415F8012F414603A806F01A
:101240009FFC204622340097002303AA3146A4B213
:10125000FFF7C6FAB4F5EF7FEDD13536B6B2B6F585
:10126000A07F09F11C09E4D105B0BDE8F08300BFFF
:1012700000000020D47201082DE9F04F064687B027
:101280000020FFF79DFF0025DFF8E090DFF8E08009
:10129000DFF8E0A02F4642F20F7B02A8FFF774FBB5
:1012A000BDF8084004A8FFF76FFB5C45F5D0BDF81A
:1012B00012B0A8FB0B23ABEB030B03EB5B0BCBF3E5
:1012C0004F1BABF1020BA9FB04341FFA8BFB640923
:1012D000BBF1000F1BD10D2C2DD0CBEBCB039B0012
:1012E000C7EBC70B03EB4B0353446A1C1B5D7355E1
:1012F00095B200234FF6FF727355184600921946B7
:101300003246FFF76DFA642000F084F8C3E7BBF1C2
:10131000020F08D10CB10D2CDFD187F00107384640
:10132000FFF74EFFB7E7BBF1010FD6D10D2CD4D19B
:1013300007B0BDE8F08F002DCFD0013DADB24FF624
:10134000FF7406F805B0594658460094102340F241
:10135000DF12FFF759FC584600945B463246594667
:10136000FFF73EFA0A2000F055F894E7F1F0F0F0AC
:10137000B3CF21350000002070B50E4B0E4D1B6819
:101380002A7806464FF47A70B0FBF2F0B3FBF0F027
:1013900000F09AF808B90F2E01D9012070BD04465B
:1013A000024631464FF0FF3000F058F86E6020469C
:1013B00070BD00BF7C0000207000002008B50B4B02
:1013C0001A6842F400721A601A6842F480621A6065
:1013D0001A6842F480721A60032000F02DF8002091
:1013E000FFF7CAFF06F034FA002008BD003C0240B7
:1013F000034A044B11681B780B441360704700BF0D
:101400008402002070000020014B1868704700BF64
:101410008402002038B50446FFF7F6FF631C05463A
:1014200002D0044B1B781C44FFF7EEFF401BA04288
:10143000FAD338BD70000020074AD3684FF6FF0189
:101440000B40000243F0BF6300F4E06043F400335C
:101450000343D360704700BF00ED00E0184BDB682A
:10146000C3F3022330B4C3F10705042D03F10404D0
:1014700028BF0425062C19D9033B4FF0FF349C40AC
:1014800022EA04044FF0FF32AA4021EA020101FAE5
:1014900003F2224312010028D2B20ADB00F16040BD
:1014A00000F5614080F8002330BC704700242346DB
:1014B000E8E7044B00F00F0003441A7630BC704795
:1014C00000ED00E0FCEC00E00138B0F1807F0ED2CE
:1014D000084B10B4084C5860F02084F82300002218
:1014E000072110469A6019605DF8044B704701208F
:1014F000704700BF10E000E000ED00E0044A136810
:1015000004280CBF43F0040323F004031360704766
:1015100010E000E0704700BF08B5FFF7FBFF08BD13
:101520002DE9F04FDFF830C2DFF83082D1F800E06B
:1015300083B0002503E00135102D00F09A800123CF
:10154000AB400EEA0304A342F5D14E6826F0100A20
:10155000BAF1020F00F090804FEA45090322D0F85B
:1015600000B002FA09F2D24306F0030702EA0B0BBD
:1015700007FA09F70AF1FF3A47EA0B07BAF1010F38
:10158000076040F29F80C7688B683A4003FA09F30E
:101590001343C360F300CED500230193D8F8443041
:1015A00043F48043C8F84430D8F8443025F00302AF
:1015B00002F1804203F4804302F59C32019305F06E
:1015C0000307019BD2F80890BF000F23BB4029EA14
:1015D000030A5B4B984224D003F58063984200F0E5
:1015E0008480584B984200F08780574B984200F017
:1015F0008A80564B984200F08D80554B984200F0FF
:101600009080544B984200F09380DFF85491484505
:101610000CBF4FF007094FF0080909FA07F74AEA2B
:10162000070AC2F808A0DCF80030E243F70354BF11
:1016300013402343CCF80030DCF80430B70354BF28
:1016400013402343CCF80430DCF80830F70254BFD1
:1016500013402343CCF80830DCF80C30B60205F117
:10166000010554BF13402343102DCCF80C307FF4F8
:1016700066AF03B0BDE8F08F4FEAD50900EB8909EA
:1016800005F00707D9F82020BF004FF00F0B0BFA29
:1016900007FB22EA0B0A0A69BA4042EA0A02C9F8C1
:1016A00020204FEA45090322D0F800A002FA09F2EF
:1016B000D24306F0030702EA0A0A07FA09F747EAE3
:1016C0000A070760876807EA020ACF6807FA09F77E
:1016D00047EA0A078760D0F804A0C6F300172AEA91
:1016E0000303AF401F4347604DE74FF0010909FA7C
:1016F00007F74AEA070A94E74FF0020909FA07F7E1
:101700004AEA070A8DE74FF0030909FA07F74AEAA0
:10171000070A86E74FF0040909FA07F74AEA070AB9
:101720007FE74FF0050909FA07F74AEA070A78E761
:101730004FF0060909FA07F74AEA070A71E700BFFE
:101740000000024000080240000C0240001002406D
:101750000014024000180240003C014000380240E2
:10176000001C024002B909048161704700285CD066
:1017700090F83D3070B503F0FF020446002B4FD0C7
:101780002268324D242384F83D30136823F001038E
:10179000136000F0F1FAD4E900312D4AA2FB006297
:1017A000920CA9425A6025D84900B0FBF1F0C0F371
:1017B0000B01013203291A6298BF0420D4E90725DE
:1017C000D4E90361D86142EA0500D4E90525314333
:1017D0002A4318609960DA601968002241F001011B
:1017E000202519601046226484F83D50226384F855
:1017F0003E2070BD4FF49675164E05FB02F2A6FB17
:1018000002529209A56801321A6285B901EB4101C1
:10181000B0FBF1F0C0F30B02AAB140F40040CDE7F9
:1018200080F83C2006F05EF8AAE70120704701EB43
:10183000810101EB8101B0FBF1F0C0F30B0212B1A9
:1018400040F44040BAE70120B8E700BFA08601009D
:1018500083DE1B43D34D6210002800F032812DE956
:10186000F0410368DD0782B004462FD5AC498A6891
:1018700002F00C02042A00F0EA808A6802F00C02EE
:10188000082A00F0E0806368B3F5803F00F0E9804B
:10189000B3F5A02F00F05481A14D2A6822F48032C4
:1018A0002A602A6822F480222A60002B40F0DE8021
:1018B000FFF7AAFD064605E0FFF7A6FD801B64289A
:1018C00000F2F2802B689B03F6D423689F0775D43F
:1018D0001A0715D56369002B00F0A580914B904D38
:1018E00001221A60FFF790FD064605E0FFF78CFD28
:1018F000801B022800F2D8806B6F9B07F6D5236807
:1019000058073BD5864A136C13F0805340F0DB80B8
:101910000193136C43F080531364136C03F08053F2
:101920000193019B0126804D2A68D10540F1AC80CE
:10193000A368012B00F0C980052B00F00B81784DC6
:101940002A6F22F001022A672A6F22F004022A6716
:10195000002B40F0BF80FFF757FD41F288378046EB
:1019600006E0FFF751FDA0EB0800B84200F29C80B2
:101970002B6F9807F5D4002E40F0DC80A269CAB125
:10198000674DA96801F00C01082948D0022A674A6E
:101990004FF00001116000F0E780FFF735FD2C46A5
:1019A000054604E0FFF730FD401B02287CD8236881
:1019B0009B01F7D4002002B0BDE8F081584A91683D
:1019C00011F00C0F24D0916801F00C0108291CD0F3
:1019D000E368002B00F09280554B514D01221A60B4
:1019E000FFF712FD064604E0FFF70EFD801B0228FC
:1019F0005AD82B689807F7D52B68226923F0F8038B
:101A000043EAC2032B60236862E752685602DFD4C0
:101A1000434A126895074BD5E268012A48D0012055
:101A200002B0BDE8F0813F4A3D4D1360FFF7ECFC8A
:101A3000064604E0FFF7E8FC801B022834D86B6FF1
:101A40009F07F7D45BE74A6850027FF51CAF344A22
:101A5000126891037FF53AAF6268002A7FF436AFCF
:101A6000DDE72F4A136843F480331360FFF7CCFCA3
:101A70002B4D064604E0FFF7C7FC801B642813D8F3
:101A80002B689A03F7D520E72A6842F480722A600F
:101A9000FFF7BAFC07462B68DA053FF549AFFFF7B9
:101AA000B3FCC01B0228F6D9032002B0BDE8F081C8
:101AB0001B4920690A6822F0F80242EAC0020A6063
:101AC00006E70120704700262DE7154A136F43F003
:101AD00001031367FFF798FC114D804641F28837E8
:101AE00005E0FFF791FCA0EB0800B842DCD82B6FB3
:101AF0009B07F6D5002E3FF441AF1BE00C4A084D82
:101B00001360FFF781FC064604E0FFF77DFC801BB5
:101B10000228C9D82B689907F7D42368D8E600BFF4
:101B200000380240800E474200700040600047428B
:101B300000004742234A136C23F0805313641DE7CF
:101B4000204B1A6842F480221A601A6842F48032EC
:101B50001A608BE71B4B1A6F42F004021A671A6F68
:101B600042F001021A67B5E7FFF74EFC064604E0B3
:101B7000FFF74AFC801B022896D82B689901F7D4FE
:101B8000D4E90736D4E90902E16A0E4C334343EA4B
:101B90008013520843EA0163013A0B4943EA0243C6
:101BA00001226B600A60FFF72FFC054605E0FFF796
:101BB0002BFC401B02283FF677AF23689A01F6D52D
:101BC000F8E600BF0038024060004742174908B5F8
:101BD0008B6803F00C03042B1BD0082B17D14A6829
:101BE0004B6813F4800302F03F0214D14968104897
:101BF000C1F38811A1FB0001FEF7EAFA0B4B5B6809
:101C0000C3F3014301335B00B0FBF3F008BD0848A8
:101C100008BD084808BD4B680648C3F38813A3FBFA
:101C200000010023FEF7D4FAE8E700BF00380240C5
:101C30000024F40040787D0160B1484A136803F045
:101C40000F038B4208D2CBB21370136803F00F035B
:101C50008B4201D00120704703682DE9F0419D07B8
:101C600014D55C0704D53E4CA26842F4E052A26051
:101C70001A0704D53A4CA26842F46042A260384C7C
:101C80008568A26822F0F0022A43A260DF070446BA
:101C90000D4622D54268012A56D0931E012B304BA7
:101CA0001B6858D9990725D52D4EB36823F0030337
:101CB0001343B360FFF7A8FB41F28837804605E085
:101CC000FFF7A2FBA0EB0800B84242D8B3686268F5
:101CD00003F00C03B3EB820FF2D1204A136803F038
:101CE0000F03AB4209D9EBB21370136803F00F0373
:101CF000AB4202D00120BDE8F08123685A0706D527
:101D00001749E0688A6822F4E05202438A601B07A0
:101D100011D4FFF75BFF124B12499B68124AC3F3C1
:101D20000313CB5C20FA03F300201360FFF724FBBE
:101D30000020BDE8F0810A4A2169936823F46043DA
:101D400043EAC1039360E4E7054B1B689E03ABD4F1
:101D5000D0E70320EDE79801A6D4CBE7003C024092
:101D600000380240807201087C000020014B186896
:101D7000704700BF7C000020044B054A9B68054962
:101D8000C3F382230868D35CD84070470038024010
:101D9000907201087C00002000283BD090F8512070
:101DA000002370B502F0FF010446836262B3184657
:101DB000D4E90135D4E903212B4313436269E56972
:101DC000266A0B431343A26921682B43022584F83A
:101DD0005150334302F400750E682B43120C656AB0
:101DE00002F0040203432A4326F040060E600B6013
:101DF0004A60CB69002223F400630125CB611046C1
:101E0000626584F8515070BD80F8501005F094FD63
:101E1000A06ACDE7012070472DE9F0410D4690F80A
:101E20005010012982B072D01E46012380F8503034
:101E300004461746FFF7E8FA804694F85100C0B20E
:101E4000012809D002200122002384F8512084F8BF
:101E5000503002B0BDE8F081002DF4D0002FF2D058
:101E6000A36820682563032284F85120B3F5004F4E
:101E70004FF000026265A263A287C4E91022E786E0
:101E8000A786E287024603D1036843F480430360D8
:101E9000036859063FD5E3686168B3F5006F00F049
:101EA000B080002951D115F8013B0373E38E2068FF
:101EB000013B9BB2E3860246711C31D0002E52D00A
:101EC000E38E9BB273B183689A0755D4FFF79CFAEF
:101ED000A0EB080086424DD9E38E20689BB20246F3
:101EE000002BF0D1771C51D183689D07FCD5836806
:101EF0001A06FCD4A3682BB90193C36801938368C5
:101F00000193019B606D003018BF01209BE7022008
:101F100002B0BDE8F081036843F040030360BAE714
:101F2000E38E9BB2002BDDD083689B07F8D515F8B4
:101F3000013B0373E38E2068013B9BB2E386E38E93
:101F40009BB20246002BEFD1CCE7E38E9BB2012B74
:101F5000B2D1A8E715F8013B0373E38E2068013B7B
:101F60009BB2E3860246E38E9BB2002BBAD0836815
:101F70009F07EFD4032066E715F8013B0373E38E58
:101F80002068013B9BB2E386024699E78368990784
:101F900013D4002E00F08A80FFF736FAA0EB080079
:101FA000864240F28280206802469BE7FFF72CFAC7
:101FB000A0EB08008642206804D983681B0699D5E7
:101FC000002EF3D14368626823F0E003B2F5827F0C
:101FD000436000F09080A36AB3F5005F08D1036806
:101FE0004DF6FF7213400360036843F4005303602F
:101FF000012084F85100636D2022134363656265FC
:1020000021E7002949D0E38E9BB2012B45D0771CF4
:1020100016D0002E2FD0E38E9BB2002B3FF462AF80
:102020008368990731D4FFF7EFF9A0EB08008642E7
:10203000A0D9E38E20689BB20246002BF0D151E775
:10204000E38E9BB2002B3FF44DAF83689B07F7D51F
:1020500035F8023BC360E38E013B9BB2E386E38E1F
:102060009BB2002BF1D13DE735F8023BC360E38E14
:10207000013B9BB2E386E38E9BB2002B3FF432AF71
:1020800083689B077FF576AFEEE735F8023BC360C8
:10209000E38E013B9BB2E386BDE735F8023BC360AC
:1020A000E38E013B9BB2E386B1E722685368616827
:1020B00023F0E003B1F5827F536010D0A36AB3F53B
:1020C000005F08D113684DF6FF710B401360136871
:1020D00043F400531360012384F851304AE7A368A6
:1020E000B3F5004F02D0B3F5806FE7D1136823F04A
:1020F00040031360E2E7A368B3F5004F03D0B3F5E4
:10210000806F7FF468AF036823F04003036062E7E9
:102110002DE9F04304464068B0F5827F0D4683B058
:1021200094F8501016461F4618D0012900F08D80F3
:10213000012384F85030FFF767F9804694F8510086
:10214000C0B2012800F0858002200122002384F81B
:10215000512084F8503003B0BDE8F083A368002B11
:10216000E3D10423012984F851306ED0012384F88F
:102170005030FFF749F994F851306268DBB2012B17
:10218000804607D0B2F5827FDED1A1680029DBD17D
:10219000042BD9D1002D00F02881002E00F02581DC
:1021A00094F85130012B04BF052384F851300021ED
:1021B00023686165E687E6861868A563C4E910119F
:1021C0004106A6872563A68603D4196841F040011D
:1021D0001960E168B1F5006F2E4600F06D81002AAC
:1021E00000F06281E28E92B2012A00F05D817B1CD8
:1021F00040F0CB8023680121E28E92B222B9E28FB7
:1022000092B2002A00F0CE8071B1E28E92B25AB141
:102210009A68900708D532781A73E28E2368013ADB
:1022200092B20136E2860021E28F92B2002AE3D018
:102230009A68D207E0D5DB682B70E28F2368013AF9
:1022400092B20135E2870121D6E7022003B0BDE852
:10225000F083002D3FF479AF002E3FF476AFA168F4
:10226000A563042384F85130B1F5004F4FF000030B
:102270006365A687E6872363A386C4E91033E386F4
:1022800022685ED01368580603D4136843F04003F5
:102290001360E368A3B97E1C3FD0002F5DD0E38FAD
:1022A0009BB2002B30D023689A68D00700F18D8054
:1022B000FFF7AAF8A0EB08008742F0D8032044E714
:1022C000791C10D0002F58D0E38F9BB2E3B1236864
:1022D0009A68D20700F18180FFF796F8A0EB08001A
:1022E0008742F1D8EAE7E38F9BB26BB19368DF07CF
:1022F000F9D5D36825F8023BE38F013B9BB2E38716
:10230000E38F9BB2002BF1D16368B3F5827F6ED06F
:10231000606D003018BF012017E7E38F9BB2002BE0
:10232000F2D023689A68D107F7D51B7B05F8013BEB
:10233000E38F013B9BB2E387E38F9BB2002BF0D18D
:10234000E2E7136823F4804313609BE71B7B05F8E7
:10235000013BE38F013B9BB2E387E38F9BB2002BF2
:10236000D2D023689A68D207A8D5EFE7D36825F8BA
:10237000023BE38F013B9BB2E387E38F9BB2002BD1
:10238000C2D09368DB0799D5F0E74FF00109E38EDF
:102390009BB2002B40F0C080E38F9BB2002B40F03B
:1023A000BB802368781C2FD19A689107FCD59A6866
:1023B0001606FCD4A068002840F015810190DA6868
:1023C00001929B680193019BBFE61B7B05F8013BD3
:1023D000E38F013B9BB2E38761E7DB6825F8023BB3
:1023E000E38F013B9BB2E3876EE70120ADE6A36874
:1023F000B3F5004F02D0B3F5806F89D1226813681E
:1024000023F04003136083E79A68920728D437B11A
:10241000FEF7FAFFA0EB080087422368C2D85A688B
:10242000616822F0E002B1F5827F5A6000F0DD8041
:10243000A26AB2F5005F08D11A684DF6FF710A4032
:102440001A601A6842F400521A60012384F851306D
:1024500034E7FEF7D9FFA0EB08008742236804D9D0
:102460009A681506A6D5002FF3D15A68616822F044
:10247000E002B1F5827F5A6000F0C480A26AB2F532
:10248000005F08D11A684DF6FF710A401A601A6899
:1024900042F400521A60012084F85100636D20223A
:1024A00013436365626550E616F8012B1A73E38ED9
:1024B000013B9BB2E3869AE6002A58D0E28E92B2A4
:1024C000012A54D0791C5AD10121E28E92B222B94C
:1024D000E28F92B2002A3FF465AF69B1E28E92B208
:1024E00052B19A68920707D536F8022BDA60E28E6D
:1024F000013A92B2E2860021E28F92B2002AE4D041
:102500009A68D007E1D5DA6825F8022BE28F013A04
:1025100092B2E2870121D8E7B9F1000F0FD0E38E24
:102520009BB263B123689A68910708D532781A7311
:10253000E38E013B9BB20136E3864FF00009E38F47
:102540009BB263B123689A68D20708D5DB682B7009
:10255000E38F013B9BB20135E3874FF00109FEF7A2
:1025600053FFA0EB080087423FF611AFA6E636F80E
:10257000022BDA60E28E013A92B2E286A2E74FF0D5
:102580000109E38E9BB223B9E38F9BB2002B3FF48A
:1025900008AFB9F1000F0FD0E38E9BB263B123688F
:1025A0009A68920708D536F8022BDA60E38E013B71
:1025B0009BB2E3864FF00009E38F9BB263B12368BF
:1025C0009A68D00708D5DB6825F8023BE38F013B0A
:1025D0009BB2E3874FF00109FEF716FFA0EB08005E
:1025E0008742CED86AE60020AFE5A268B2F5004F78
:1025F00003D0B2F5806F7FF41BAF1A6822F040025F
:102600001A6015E7A268B2F5004F03D0B2F5806FEB
:102610007FF434AF1A6822F040021A602EE700BF40
:102620002DE9F0410E4690F85010012982B079D082
:1026300004461F46012380F850301546FEF7E4FE9D
:1026400094F851106368C9B20129804611D0B3F5DE
:10265000827F09D002200122002384F8512084F8CF
:10266000503002B0BDE8F081A268002AF2D10429FE
:10267000F0D1002E5AD0002D58D0002F56D094F80B
:102680005120012A04BF052284F85120002122682C
:102690006165E787E7861068A563C4E91011410604
:1026A000A7872663A78603D4116841F04001116013
:1026B000E168B1F5006F60D0002B00F0BE80E38EC2
:1026C0009BB2012B00F0B980089B013340F0BD8024
:1026D00022680121E38E9BB21BB9E38F9BB2002BD2
:1026E00036D071B1E38E9BB25BB193689F0708D57A
:1026F00033781373E38E2268013B9BB20136E38685
:102700000021E38F9BB2002BE4D09368D807E1D57A
:10271000D3682B70E38F2268013B9BB20135E387BE
:102720000121D7E7022002B0BDE8F081012092E745
:10273000916888075CD4089A002A00F0F280FEF7BE
:1027400063FE089BA0EB0800834240F2E980226808
:10275000089901311346EBD193689D07FCD5936826
:102760001906FCD4A068002840F0D8800190D368F6
:10277000019393680193019B6DE7002B00F0968015
:10278000E38E9BB2012B00F09180089B013340F057
:1027900095800121E38E9BB21BB9E38F9BB2002B86
:1027A000D6D069B1E38E9BB253B193689F0707D52A
:1027B00036F8023BD360E38E013B9BB2E3860021F7
:1027C000E38F9BB2002BE5D09368D807E2D5D3689E
:1027D00025F8023BE38F013B9BB2E3870121D9E758
:1027E000FEF712FE089B2268A0EB0800834205D981
:1027F00093681B06B6D5089B002BF1D1536861681E
:1028000023F0E003B1F5827F536000F0AF80A36A4C
:10281000B3F5005F08D113684DF6FF710B401360EC
:10282000136843F400531360012084F85100636D72
:1028300020221343636562650DE716F8013B1373AD
:10284000E38E013B9BB2E3863EE70127E38E9BB21A
:1028500023B9E38F9BB2002B3FF479AF77B1E38EBE
:102860009BB25BB123689A68910707D532781A73D7
:10287000E38E013B9BB20136E3860027E38F9BB2D8
:102880005BB123689A68D20707D5DB682B70E38FAA
:10289000013B9BB20135E3870127FEF7B5FD089B9D
:1028A000A0EB08008342D1D80320D4E636F8023BDF
:1028B000D360E38E013B9BB2E38666E70127E38E9C
:1028C0009BB223B9E38F9BB2002B3FF440AF77B1AB
:1028D000E38E9BB25BB123689A68910707D536F8FF
:1028E000022BDA60E38E013B9BB2E3860027E38F85
:1028F0009BB25BB123689A68D20707D5DB6825F8DD
:10290000023BE38F013B9BB2E3870127FEF77CFD8F
:10291000089BA0EB08008342D1D8C5E700209AE6C7
:1029200023685A68616822F0E002B1F5827F5A603C
:1029300010D0A26AB2F5005F08D11A684DF6FF7197
:102940000A401A601A6842F400521A60012384F89F
:102950005130A9E7A268B2F5004F02D0B2F5806FFE
:10296000E7D11A6822F040021A60E2E7A368B3F5E3
:10297000004F03D0B3F5806F7FF449AF136823F0A5
:102980004003136043E700BF90F85100704700BF59
:1029900038B390F8493070B5154604460E4603F03A
:1029A000FF02CBB104F10801206800F01DF83146A8
:1029B000A268206800F044F82946236BD4E901029C
:1029C00000F05EF8A168226852F8213043F001035C
:1029D00042F82130002070BD80F8482005F004F84E
:1029E000E0E70120704700BFD1E90132F0B4D1E93E
:1029F0000365134333434C69CF6B2B43D1E9066521
:102A000023433343D1E908642B433343D1E90A65B7
:102A100023430C6833432B430E6B50F82450074973
:102A20003B43334329400B43082A08BF43F040038C
:102A300040F824300020F0BC704700BF8000F0FF59
:102A400070B400EB82028C690B68D1E90106234364
:102A500043EA0013D1E903504C69516843EA062365
:102A600043EA0543013843EA0053023C43EA046366
:102A700001F040410B430020536070BC704700BF21
:102A8000B3F5804F05D06FF0704340F8223000203E
:102A9000704770B40B688D694C682B43D1E90265AF
:102AA00043EA0413064950F8224043EA062343EA66
:102AB000054321400B4340F8223070BC0020704792
:102AC0000000F0CF70B5C37804460D46407804F19D
:102AD000380683B10123626B314604F06FF9C0B947
:102AE000616BA36A226AE070CB1A9342607802D2CB
:102AF000A378022B0FD02A463146012304F06EF84A
:102B0000002818BF4FF0FF35656314BF0120002077
:102B100070BD012070BD0A440123314604F04EF916
:102B20006078E8E7F8B5C37805460E4600F1380747
:102B300033BBEA69B31E023A93423BBF6E892A6BEC
:102B4000002603FB06266E634FF400720021384610
:102B500005F00EF86889044670B1002403E0688926
:102B60000134A04208D9012332193946687804F0AB
:102B700025F90028F3D06889201A18BF0120F8BD74
:102B8000426B40780123394604F018F980B9696B2B
:102B9000AB6A2A6AE870CB1A9342CAD2AB78022B8E
:102BA000C7D10A4401233946687804F007F9C0E721
:102BB0000120F8BDF8B5C37804465BB92378032B30
:102BC00023D000226078114604F044FA003018BF88
:102BD0000120F8BD00F13805426B407829460123F9
:102BE00004F0ECF8002850D1616BA36A226AE0700F
:102BF000CB1A9342E2D2A378022BDFD10A440123FD
:102C00002946607804F0DAF8D8E72579012DD8D183
:102C100004F138064FF400720021304604F0A8FF9A
:102C2000D4E904210023080A61F307030F0C60F3C1
:102C30000F23002062F3070067F31743090E170AFA
:102C400061F31F6367F30F20110C61F31740120E3D
:102C5000616AC4F8203262F31F602B464A1C4FF0B1
:102C6000550CC4F82402AA2709480A4DC4F81C02CE
:102C70003146626384F836C284F83772A56360789F
:102C800004F09CF8002323719BE70120F8BD00BFEE
:102C900072724161525261412DE9F0470678022E6D
:102CA00004460D46174679D0032E52D0012E02D08D
:102CB0000220BDE8F087836A426B01EB510803EB09
:102CC000582A924500F1380940F0C08008F1010609
:102CD00015F00105C8F308084FEA562100F0D4802A
:102CE00019F8083003F00F0343EA071309F8083016
:102CF000A36A626B01EB030890454FF00103E37098
:102D000000F0E28001234946607804F057F800287B
:102D100040F09980616BA36A226AE070CB1A9342FB
:102D2000607803D2A378022B00F0E08001234246B2
:102D3000494603F053FF002840F08280C6F308069E
:102D4000B144C4F83480002D00F0AD80C7F30717FC
:102D5000B0E0836A426B03EBD118904500F138066E
:102D60004ED1AD0005F4FE75731927F070475A88EF
:102D7000120402F070423A430023110A62F307037F
:102D800061F30F23110C61F31743120E62F31F63FB
:102D900073510122E2700020BDE8F087866A426B21
:102DA00006EB1126964200F138081AD0C378407815
:102DB00083B10123414604F001F8002843D1616B3F
:102DC000A36A226AE070CB1A934202D2A378022B44
:102DD0007ED0607801233246414603F0FFFE78BB87
:102DE00066636D0005F4FF7508EB050208F80570D1
:102DF000C7F3072101235170E3700020BDE8F0877D
:102E0000C3784078ABB10123314603F0D7FFD0B986
:102E1000616BA36A226AE070CB1A9342607808D291
:102E2000A378022B05D10A440123314603F0C6FFE3
:102E3000607801234246314603F0D0FE002840D09E
:102E40004FF0FF3363630120BDE8F087C37840781B
:102E500083B13346494603F0B1FF0028F3D1616BDB
:102E6000A36A226AE070CB1A934202D2A378022BA3
:102E700035D0607801235246494603F0AFFE002862
:102E8000DED1C4F834A021E709F80870A36A626BA8
:102E900001EB030842454FF00103E3707FF432AFCA
:102EA000C6F30806B14499F80030C7F3032223F0B3
:102EB0000F071743012389F80070E3700020BDE875
:102EC000F087C4F834804CE7C6F30806B1443DE708
:102ED0000A4401234146607803F070FF79E70A4411
:102EE00033464946607803F069FFC2E70A4401238C
:102EF000494603F063FF607818E700BF01296FD9E6
:102F00002DE9F04F0468E3698B4283B00D46834698
:102F100011D9A2B9264604F138094FF0000ACDF8BC
:102F200000B09D4207D23778022F00F00B81032FAB
:102F300058D0012F13D0022003B0BDE8F08F012A32
:102F4000F9D99342F7D9114620464FF0FF32FFF7E7
:102F5000A3FE0028F0D1DBF80060F369DBE7B16A7B
:102F6000726B05EB550801EB582B934540F01C8123
:102F7000C8F3080308F10108334401EB58279742CE
:102F800093F838B000F0EF81F378707806F13801EB
:102F90000191B3B1012303F011FF002840F04E81ED
:102FA000716BB36A326AF070CB1A9342707808D2B0
:102FB000B378022B05D10A440123019903F0FEFEE8
:102FC0007078019901233A4603F008FE002800F0CA
:102FD000C9814FF0FF330120736303B0BDE8F08F68
:102FE00002207047B76A726B07EBD517974206F15C
:102FF000380840F0FD80AB0003F4FE7308EB0302D9
:1030000018F8037092F801B053884BEA032B47EA93
:103010000B2727F07047002F00F0B381012F8AD0D3
:10302000E369AB4287D92378022B00F04781032B59
:1030300000F00881012B7FF47EAFA16A626B05EB83
:10304000550601EB5628904523D0E1786078B1B160
:10305000494603F0B3FE002840F0F080616BA36A9C
:10306000226AE070CB1A934208D2A378022B05D1D2
:103070000A4401234946607803F0A0FE60780123EA
:103080004246494603F0AAFD002840F0D480C4F827
:10309000348006F1010815F00105C6F308064FEA71
:1030A000582100F04C8119F8063003F00F0309F89D
:1030B0000630A66A626B0E444FF001039642E3703D
:1030C00000F0618101234946607803F077FE002813
:1030D00040F0B480616BA36A226AE070CB1A93421D
:1030E000607808D2A378022B05D10A44012349460F
:1030F00003F064FE607801233246494603F06EFD1A
:10310000002840F09880C8F30808C8446663002D82
:1031100000F023814FF0010388F80000E370E269BA
:103120006369911E8B4205D22179013341F001017F
:1031300063612171BA4240F22481009B1E683D46C2
:10314000F369EEE6B76A726B07EB1527974206F153
:1031500038081DD0F37870788BB10123414603F015
:103160002DFE00286AD1716BB36A326AF070CB1AF7
:10317000934203D2B378022B00F00A8170780123C6
:103180003A46414603F02AFD00287FF422AF7763D8
:103190006B0003F4FF7308EB030218F8037092F856
:1031A00001B047EA0B2736E7F378707806F138016B
:1031B00001918BB13B4603F001FE00283ED1716BBB
:1031C000B36A326AF070CB1A934203D2B378022BFF
:1031D00000F0E5807078019901235A4603F0FEFC67
:1031E00000287FF4F6AEB16AC6F834B05A46BFE69E
:1031F000F3787078ABB10123414603F0DFFDE8B905
:10320000716BB36A326AF070CB1A9342707808D24D
:10321000B378022B05D10A440123414603F0CEFDC9
:10322000707801233A46414603F0D8FC00287FF429
:10323000D0AE7763DFE64FF0FF336363012003B066
:10324000BDE8F08FA66A626B06EBD516964221D0D8
:10325000E3786078B3B10123494603F0AFFD00285D
:10326000ECD1616BA36A226AE070CB1A934260785A
:1032700008D2A378022B05D10A440123494603F062
:103280009DFD607801233246494603F0A7FC0028E3
:10329000D1D16663AD0005F4FE7509EB05025388D4
:1032A00009F805A01B0A03F0F003D3704FF00103E7
:1032B00082F801A082F802A0E37030E7A66A626B90
:1032C00006EB152696422DD0E3786078B3B1012342
:1032D000494603F073FD0028B0D1616BA36A226AEE
:1032E000E070CB1A934208D2A378022B05D10A448E
:1032F00001234946607803F061FD6078012332467E
:10330000494603F06BFC002895D16D0005F4FF756C
:1033100009EB0503666309F8050058704FF00103D7
:10332000E370FCE66D0005F4FF7509EB050309F891
:1033300005A083F801A04FF00103E370EFE609F860
:103340000650A66A626B0E444FF00103B242E3706E
:103350007FF4B8AEC8F30808C84498F8000000F03D
:10336000F000D7E67763C8F308084644EB0796F801
:1033700038704BEA072B4CBF4FEA1B17CBF30B07F8
:1033800049E60020D8E5C8F30808C8440020C1E693
:103390000A4401234146707803F010FDEEE60A442A
:1033A0003B460199707803F009FD13E7B1F5001F62
:1033B00039D22DE9F04F0D46E90683B02FD184684C
:1033C00005618046D0F8009084BB99F80030022B4C
:1033D00002D9D9F82C3043BBB9F80830B3EB551FEC
:1033E0001DD9D9F82C20C8F81820C8F81440B2B15B
:1033F00009F13809C5F308034B4402EB55250020B9
:10340000C8E9065303B0BDE8F08FD9F81C30023B81
:10341000A11E9942C0F011810023C8E90543022092
:1034200003B0BDE8F08F022070471C46B9F80AA02F
:103430004FEA4A2A5545E8D3012CF0D9D9F81C3077
:10344000A342ECD94E463778022F00F08380032F39
:1034500030D0012FE3D1B16A726B04EB540B01EB56
:103460005B239342009300F0A880F378707806F114
:103470003801019183B13B4603F0A0FCB0B9716BF8
:10348000B36A326AF070CB1A934203D2B378022B3C
:1034900000F0E38070780199009A012303F09EFB0D
:1034A000002800F086804FF0FF337363012003B0E3
:1034B000BDE8F08FB76A726B07EBD417974206F13D
:1034C000380B21D0F3787078B3B10123594603F05B
:1034D00075FC0028EAD1716BB36A326AF070CB1ABE
:1034E0009342707808D2B378022B05D10A440123A5
:1034F000594603F063FC707801233A46594603F0BD
:103500006DFB0028CFD17763A40004F4FE740BEBAD
:1035100004021BF804405188537843EA012344EA2B
:10352000032424F07044012C7FF679AFD9F81C30C5
:10353000A3427FF674AFA5EB0A05AA453FF667AF35
:10354000D8F80060F369A3427FF669AF3778022F9D
:103550007FF47DAFB76A726B07EB1427974206F1D1
:10356000380B1BD0F378707883B10123594603F0F0
:1035700025FC00289AD1716BB36A326AF070CB1ABD
:10358000934202D2B378022B60D0707801233A467E
:10359000594603F023FB002885D17763640004F4C7
:1035A000FF740BEB04031BF804405B7844EA03242C
:1035B000B9E7009BB16A73631A46CBF3080333443F
:1035C0000BF1010B01EB5B2793F838300093BA4203
:1035D00025D0F378707806F138010191B3B1012359
:1035E00003F0ECFB00287FF461AF716BB36A326AC1
:1035F000F070CB1A9342707808D2B378022B05D1C1
:103600000A440123019903F0D9FB70780199012341
:103610003A4603F0E3FA00287FF445AF7763CBF333
:10362000080B5E44009A96F8383042EA0323E2071A
:103630004CBF1C09C3F30B0475E7B9F80A20D9F88D
:10364000303001FB0232C8F81820CEE60A440123CC
:103650005946707803F0B2FB97E70A443B4601995C
:10366000707803F0ABFB15E72DE9F84F8468076825
:1036700000230361ECB93B78022B16D83B898BB150
:10368000FB6A836144616BB13837C7610020BDE8D4
:10369000F88FFA69A11E023A9142C0F00981002315
:1036A000C0E905430220BDE8F88FFB6A002BE5D096
:1036B0001C467B89002BECD1012CF3D9FB69A3427A
:1036C000F0D93D46064695F80080B8F1020F7BD050
:1036D000B8F1030F2DD0B8F1010FE3D1A96A6A6BDD
:1036E00004EB540901EB592B934500F0A180EB78D2
:1036F000687805F1380A83B14346514603F05EFB12
:10370000A8B9696BAB6A2A6AE870CB1A934203D2F4
:10371000AB78022B00F0D8806878514601235A46D6
:1037200003F05CFA00287FD04FF0FF336B63012079
:10373000ADE7AB6A6A6B03EBD418904505F1380925
:1037400022D0EB786878B3B10123494603F036FB09
:103750000028ECD1696BAB6A2A6AE870CB1A9342F5
:10376000687808D2AB78022B05D10A440123494678
:1037700003F024FB687801234246494603F02EFA01
:103780000028D1D1C5F83480A40004F4FE7409EBFC
:10379000040219F804405188537843EA012344EAAB
:1037A000032424F07044012C7FF67CAFFB69A34214
:1037B0007FF678AF3568EB69A3427FF673AF95F873
:1037C0000080B8F1020F83D1AB6A6A6B03EB142857
:1037D000904505F138091CD0EB78687883B1012356
:1037E000494603F0EBFA0028A1D1696BAB6A2A6A5B
:1037F000E870CB1A934202D2AB78022B5DD0687886
:1038000001234246494603F0E9F900288CD1C5F866
:103810003480640004F4FF7409EB040319F80440D5
:103820005B7844EA0324BEE7A96AC5F834B05A4677
:10383000C9F3080309F101092B4401EB592A924508
:1038400093F8388026D0EB78687805F1380BBBB157
:103850000123594603F0B2FA00287FF468AF696B80
:10386000AB6A2A6AE870CB1A9342687808D2AB78C0
:10387000022B05D10A440123594603F09FFA6878C8
:1038800059460123524603F0A9F900287FF44CAFB2
:10389000C5F834A0C9F308094D4495F8383048EA12
:1038A0000328E3074CBF4FEA1814C8F30B047AE768
:1038B0003A6B01FB03238361E4E60A440123494692
:1038C000687803F07BFA9AE70A44434651466878E1
:1038D00003F074FA20E700BF012930D92DE9F8433D
:1038E000C369994228D20378022B06460C463ED083
:1038F000032B26D0012B1FD1816A426B04EB5405A8
:1039000001EB552797427CD1C5F308036F1C334464
:1039100001EB5728904593F8385040F09180C7F359
:1039200008003044E30790F8380045EA00204CBF17
:103930000009C0F30B0000E00120BDE8F88301207E
:103940007047856A426B05EBD115954200F1380747
:103950003AD1A10001F4FE717A18785C537851884D
:1039600043EA012340EA032020F07040E5E7856A3E
:10397000426B05EB1125954200F138071BD0C37847
:10398000407883B10123394603F018FA002879D131
:10399000716BB36A326AF070CB1A934202D2B37879
:1039A000022B72D0707801232A46394603F016F9AB
:1039B000002863D17563610001F4FF717B18785CA6
:1039C0005B7840EA0320B8E7C378407883B10123ED
:1039D000394603F0F3F9002854D1716BB36A326AA7
:1039E000F070CB1A9342707802D2B378022B5AD07F
:1039F00001232A46394603F0F1F800283ED17563C9
:103A0000A7E7C178407806F1380879B1414603F05C
:103A1000D5F9002836D1716BB36A326AF070CB1ACF
:103A2000934202D2B378022B36D0707841460123FC
:103A30003A4603F0D3F808BBB16A77633A4663E7C6
:103A4000F378707806F138097BB10123494603F019
:103A5000B5F9B8B9716BB36A326AF070CB1A934298
:103A6000707802D2B378022B24D049460123424613
:103A700003F0B4F810B9C6F8348050E74FF0FF30C7
:103A800070635AE74FF0FF3057E70A440123394685
:103A9000707803F093F985E70A4401234146707872
:103AA00003F08CF9C1E70A440123394603F086F993
:103AB00070789DE70A440123494603F07FF9707846
:103AC000D3E700BF2DE9F04F814683B08B46D0F895
:103AD000008091BBD8F8107067B1D8F81C30BB4299
:103AE00098BF0127D8F814304BB90024204603B002
:103AF000BDE8F08FD8F814300127002BF5D0D8F8A6
:103B00001C30CDF800B03C4601349C42C0F08180AE
:103B1000012FEAD9D9F800500224EB69A34207D952
:103B20002E78022E00F09F80032E79D0012E32D005
:103B30000124204603B0BDE8F08F4046FFF7CCFEDD
:103B400001280446F4D9411C00F01581D8F81C3036
:103B50008342CBD8D8F81420002AC6D00BF1010438
:103B6000A34298BF02242146D9F80000FFF7B4FE13
:103B70000128DDD0421C00F0FE80002800F00D81FD
:103B8000D8F81070D8F81C30012F40F20F819F42F6
:103B900028BF5F46B5E7A96A6A6B04EB540A01EBDC
:103BA0005A2B934540F09080CAF308030AF1010AAA
:103BB0002B4401EB5A26964293F838B000F0DF8090
:103BC000EB78687805F138010191B3B1012303F076
:103BD000F5F8002840F0CF80696BAB6A2A6AE8707C
:103BE000CB1A9342687808D2AB78022B05D10A44ED
:103BF0000123019903F0E2F8687801990123324624
:103C000002F0ECFF002800F0B9804FF0FF346C6345
:103C10006CE7012CD9F800503FF67FAF012488E70C
:103C2000AE6A6A6B06EBD416964205F1380A6ED17D
:103C3000A30003F4FE730AEB03021AF80330518861
:103C400092F801B04BEA012B43EA0B2323F07043B7
:103C5000002B7FD0012B3FF46BAFA7423FF445AF61
:103C6000D8F81C3050E7AE6A6A6B06EB1426964211
:103C700005F1380A1CD0EB7868788BB101235146E6
:103C800003F09CF8002876D1696BAB6A2A6AE87069
:103C9000CB1A934203D2AB78022B00F0AF80687846
:103CA00001233246514602F099FF0028ADD16E63E0
:103CB000630003F4FF730AEB03021AF8033092F86F
:103CC00001B043EA0B23C3E7EB78687805F13801CC
:103CD00001918BB1334603F071F800284BD1696B29
:103CE000AB6A2A6AE870CB1A934203D2AB78022BF4
:103CF00000F08B806878019901235A4602F06EFF2C
:103D0000002882D1A96AC5F834B05A464CE7EB784E
:103D10006878ABB10123514603F050F858BB696B8A
:103D2000AB6A2A6AE870CB1A9342687808D2AB78FB
:103D3000022B05D10A440123514603F03FF868786D
:103D400001233246514602F049FF00287FF45DAF5F
:103D50006E636DE7DDF800B0D8F81C30A3427FF643
:103D6000E7AE4FF0FF3221464046FEF795FFF8B12F
:103D700001287FF4DDAE4FF0FF34B7E66E63CAF37F
:103D8000080A554495F838304BEA032BE3074CBF3B
:103D90004FEA1B13CBF30B035AE71CB9D8F81C30BE
:103DA0005F46AEE6012C3FF4C3AED5E75F46A8E61A
:103DB000BBF1000F0FD0BBF1010F7FF6B9AED8F801
:103DC0001C309B45BFF4B4AE594622464046FEF730
:103DD00063FF0028CCD1D8F81C30D8F81420C8F8DC
:103DE0001040023B9A4202D8013AC8F8142098F8D1
:103DF000043043F0010388F8043077E60A440123D5
:103E00005146687802F0DAFF49E70A4433460199DF
:103E1000687802F0D3FF6DE72DE9F04F87680668F8
:103E2000002383B0044603618946002F3ED13378D6
:103E3000022B37D83389002B00F08580F56AA56105
:103E40006761002D7FD006F13808DFF888A3716B19
:103E5000C4F81C80434600278D427BD0F3787078ED
:103E600093B10A460123414602F0A8FF00285DD124
:103E7000716BB36A326AF070CB1A9342707803D2D6
:103E8000B378022B00F08C8101232A46414602F0D0
:103E9000A5FE00285BD04FF0FF330120736303B011
:103EA000BDE8F08FF36A002BC4D01F467589002D42
:103EB00040D1012F47D9F369BB4244D9354695F823
:103EC0000080B8F1020F00F0F580B8F1030F00F0A8
:103ED000A380B8F1010F36D1A96A6A6B07EB5709C5
:103EE00001EB592B934500F01B81EB78687805F1C5
:103EF000380A83B14346514602F060FFB0B9696B9E
:103F0000AB6A2A6AE870CB1A934203D2AB78022BD1
:103F100000F059816878514601235A4602F05EFE4E
:103F2000002800F0F9804FF0FF336B63012003B0ED
:103F3000BDE8F08FF369BA1E023B9A42C0F03781A8
:103F40000023C4E90573022003B0BDE8F08FE369E4
:103F5000756329461B78E52B1CD0DBB10027A569CA
:103F6000F5B12269203252451AD8C2F30803D4F8B9
:103F700000B04BB961690135A56199B9BBF808007A
:103F8000B0EB521F0BD9716B22610BF1380B5B4404
:103F9000E36161E701374F45E1D10020D4E7A1613A
:103FA0000720D1E7BBF80A00013810EA5220EAD115
:103FB0005846CDE90023FFF78FFC01280546C2D9FA
:103FC000421CB3D0DBF81C108842DDE9002314D377
:103FD00061692046FFF776FD05460028E0D00128FC
:103FE000B1D0431CA2D001465846FEF79BFD0028E5
:103FF0009CD1DDE90023DBF81C1065610239023D2C
:104000008D423BBFDBF83010BBF80A00002505FBF2
:104010000015716BA561B7E7AB6A6A6B03EBD71844
:10402000904505F1380924D0EB786878BBB10123BD
:10403000494602F0C3FE00287FF478AF696BAB6A93
:104040002A6AE870CB1A9342687808D2AB78022BC0
:1040500005D10A440123494602F0B0FE68780123E5
:104060004246494602F0BAFD00287FF45CAFC5F82D
:104070003480BF0007F4FE7709EB070219F80770D8
:104080005188537843EA012347EA032727F0704712
:10409000012F7FF658AFF369BB427FF654AF256816
:1040A000EB69BB427FF64FAF95F80080B8F1020F85
:1040B0007FF40BAFAB6A6A6B03EB1728904505F1F1
:1040C00038091ED0EB7868788BB10123494602F09D
:1040D00075FE00287FF42AAF696BAB6A2A6AE87024
:1040E000CB1A934202D2AB78022B65D068780123B9
:1040F0004246494602F072FD00287FF414AFC5F82D
:1041000034807F0007F4FF7709EB070319F8077085
:104110005B7847EA0327BBE7A96AC5F834B05A467B
:10412000C9F3080309F101092B4401EB592A92450F
:1041300093F8388026D0EB78687805F1380BBBB15E
:104140000123594602F03AFE00287FF4EFAE696B76
:10415000AB6A2A6AE870CB1A9342687808D2AB78C7
:10416000022B05D10A440123594602F027FE687844
:1041700059460123524602F031FD00287FF4D3AEA8
:10418000C5F834A0C9F308094D44F90795F838304B
:1041900048EA03284CBF4FEA1817C8F30B0777E724
:1041A0000A440123414602F009FE70786CE6336B45
:1041B00002FB0535A56143E60A44012349466878B8
:1041C00002F0FCFD92E70A4443465146687802F04B
:1041D000F5FD9FE6FFFF1F002DE9F04F87B0044675
:1041E0000768FFF741FA804660BB4FF0FF334FF09E
:1041F000FF0BA569DFF81893E362DA467A6BAA42EF
:1042000025D0FB78787807F1380683B10123314651
:1042100002F0D4FDA0B9796BBB6A3A6AF870CB1A88
:104220009342787803D2BB78022B00F005813146A7
:1042300001232A4602F0D2FC40B14FF0FF337B63EA
:104240004FF00108404607B0BDE8F08F7D63E56997
:104250002E7846B3EA7AE52E02F03F03A37103D02D
:10426000120726D50F2B65D04FF0FF33E3624FF0D6
:10427000FF0AA569BDB1266920364E4513D8C6F39D
:104280000802236842B961690135A561002963D13B
:104290001989B1EB561F04D938331344E361266101
:1042A000ACE70023A3614FF00408404607B0BDE827
:1042B000F08F0F2B3ED0BAF1000F6ED094F82B3058
:1042C000DA07D1D494F820202B789A42CCD16A789E
:1042D00094F821309A42C7D1AA7894F822309A42B1
:1042E000C2D1EA7894F823309A42BDD12A7994F861
:1042F00024309A42B8D16A7994F825309A42B3D1E1
:10430000AA7994F826309A42AED1EA7994F8273007
:104310009A42A9D12A7A94F828309A42A4D16A7A8A
:1043200094F829309A429FD1AA7A94F82A309A4276
:104330009AD187E794F82B305B069AD4700676D52D
:10434000236995F80DB0E36206F0BF066B7B5B4511
:104350007CD04FF0FF0A8CE75889013810EA5620CC
:104360009AD1184601920093FFF7B6FA01286AD94C
:10437000431C3FF465AF009BD969884291D2851EEA
:1043800002398D4238BF196B6061019A36BF588976
:10439000154605FB0015A5617EE72A786978D301EB
:1043A00043EA52035A18C2F34603A97843EAC213F8
:1043B00051FA83F3C3F34602E97842EAC31251FA91
:1043C00082F3C3F34602297942EAC31251FA82F218
:1043D000C2F34603697943EAC21351FA83F2C2F386
:1043E0004603A97943EAC21351FA83F3C3F34602A1
:1043F000E97942EAC31251FA82F3C3F34602297AF9
:1044000042EAC31251FA82F2C2F34603697A43EADE
:10441000C21351FA83F2C2F34603A97A43EAC213E4
:1044200051FA83F3DBB29B457FF448AF0AE7B2450C
:104430008CD04FF0FF0A1CE70A440123314602F0FA
:10444000BDFC7878F3E64FF00208FBE6EA7EAB7E2F
:1044500053EA02237FF47DAF2A782B4BF86804904F
:1044600002F03F02013A02EB420102EB81024FF0FF
:10447000010CCDE900B79A46CDE9028407462C46E7
:104480000596634615460FE07F2D1DD802F04EF9C4
:10449000834637F8150002F049F9834514D13346B5
:1044A00045461A4A924516D01AF8011B6018665CF8
:1044B000407846EA002605F101083046002BE3D19A
:1044C0004FF6FF729642ECD0DDE900B7DDE90284D9
:1044D0004FF0FF0ACDE62A4625469C462B78059EDE
:1044E0005906DDE900B7DDE9028408D5BCF1000F0B
:1044F00005D0049B33F81230002B7FF42AAF013E25
:104500005FFA86FAB5E600BFBC880008C9880008D3
:10451000FFFF1F002DE9F04F90F82B3013F0A0099A
:1045200089B040F0CC83D0F80080D8F80CC0BCF83B
:104530000030002B00F09E84634633F8022F09F10F
:104540000109002AF9D10546064655F8200F696889
:10455000AA6805AB07C39DF81F300093DC0740F144
:10456000CA8140238F4C86F82B304FF0010A202758
:104570006146DDE905329DF81CC09DF81D007262A0
:10458000BAF1050F9DF81E20336286F828C086F820
:10459000290086F82A209DF814E040F21E83A1F13C
:1045A000020C52468AE003F0010101EB4201C8030C
:1045B0004FEA530248BF614002F0010202EB4101A1
:1045C000C8034FEA930248BF614002F0010202EBC8
:1045D0004102D0034FEAD30148BF624001F001011C
:1045E00001EB4202D0034FEA131148BF624001F0D1
:1045F000010101EB4201C8034FEA531248BF614079
:1046000002F0010202EB4101C8034FEA931248BFD6
:10461000614002F0010202EB4102D0034FEAD311E4
:1046200048BF624001F0010101EB4202D0034FEAB2
:10463000132148BF624001F0010101EB4201C803B0
:104640004FEA532248BF614002F0010202EB4101F0
:10465000C8034FEA932248BF614002F0010202EB17
:104660004102D0034FEAD32148BF624001F001016B
:1046700001EB4202D0034FEA133148BF624001F020
:10468000010101EB4201C8034FEA533248BF6140C8
:1046900002F0010202EB4101C8034FEA933248BF26
:1046A000614002F0010202EB4102D00348BF6240C8
:1046B000DB0B03EB4202D10348BF62403CF8023FF0
:1046C000002B7FF470AF02F00F0101F13003392BA2
:1046D00088BF01F137038DF81330130900F0AC8265
:1046E00003F00F0303F13001392988BF03F13701CB
:1046F000130A8DF8121000F0AB8203F00F0303F1E0
:104700003001392988BF03F13701130B8DF81110DF
:1047100000F0B28203F00F0303F13001392988BFA2
:1047200003F13701130C8DF8101000F0B18203F083
:104730000F0303F13001392988BF03F13701130D4D
:104740008DF80F1000F0B08203F00F0303F1300179
:10475000392988BF03F13701130E8DF80E1000F0D0
:10476000B28203F00F0303F13001392988BF03F14E
:104770003701130F8DF80D1000F0B082DBB203F19A
:104780003002392A88BF03F13702BEF1200F8DF8BD
:104790000C2000F030824FF0FF316FF0010C002050
:1047A00000231CE0211001000EF12002BEF19F0F3A
:1047B0005FFA82FB03F1010202D9BBF11C0F11D891
:1047C000634500F05182531C8B4205EB030B02F151
:1047D00002020FD215F803E0BEF1200F0AD0BEF19D
:1047E000800FE1D81A46531C8B4205EB030B02F1F4
:1047F0000202EFD3082932BF4FF07E0C4FF0200C9D
:104800000846072A8BF800C060D8072803F1020188
:1048100040F2EA814FF0200C082905F802C055D07B
:10482000072800F2ED810DF1200C8444DA1C1CF8FD
:1048300014CC05F801C0082A00F1010146D007296F
:1048400000F2E3810DF1200C8C44191D1CF814CCEE
:1048500005F802C0082900F1020237D0082A00F04A
:10486000D9810DF1200C94445A1D1CF814CC05F884
:1048700001C0082A00F1030128D0072900F2CF81E6
:104880000DF1200C614403F1060C11F8141CA9541D
:10489000BCF1080F00F1040018D0082803F107024A
:1048A00005EB0C0100F0C28108A90144082A11F8A7
:1048B000141C05F80C1009D0062840F0BB819DF8A7
:1048C0001310A954013308BF86F827703046FFF74C
:1048D00083FC40B90AF1010ABAF1640F00F0CD82FD
:1048E000D8F80C1045E6042840F074819DF800309B
:1048F00086F82B30009B9A0740F10C81DC4B09F1C4
:104900000C07A3FB0737BF08791C3046FFF784FA72
:10491000002840F05F81002F00F0028131693046AD
:10492000A1EB4711FEF742FD002840F0538196F8B5
:10493000202096F821C096F8224096F8230096F899
:104940002410D30143EA520303EB0C02C2F34603E3
:1049500043EAC21354FA83F2C2F3460343EAC21392
:1049600050FA83F2C2F3460343EAC21351FA83F2C8
:10497000C2F3460396F825C096F8264096F827001D
:1049800096F8281043EAC2135CFA83F2C2F3460396
:1049900043EAC21354FA83F2C2F3460343EAC21352
:1049A00050FA83F2C2F3460343EAC21351FA83F288
:1049B000C2F3460396F8290096F82A10B46943EA30
:1049C000C21350FA83F3C3F3460242EAC31351FA07
:1049D00083F3DBB2009308F13809D8F83420A242FF
:1049E00027D098F8033098F80100C3B10123494655
:1049F00002F0E4F9002840F08481D8F83410D8F8A7
:104A00002830D8F8202088F80300CB1A934298F871
:104A1000010004D298F80230022B00F08F820123AB
:104A20002246494602F0DAF8002840F06681C8F8CC
:104A30003440FCB2F3699DF80010D8F80C005973AB
:104A4000621E02EB420C002102EB8C024FF00F0CB5
:104A500083F80BC019739976D97630F81210597013
:104A60004FEA112C83F802C04FEA420C002940F0B3
:104A70005081FF22DA701A71FF225A719A71FF2257
:104A8000DA711A72FF225A729A72FF229A73DA73DB
:104A9000FF221A745A74FF229A74DA74FF221A756C
:104AA0005A75FF229A75DA75FF221A765A76FF2216
:104AB0001A775A77FF229A77DA7744F040041C700D
:104AC0004FF0010388F80330B469002C00F01D8119
:104AD000336903F1200B674B9B4500F21681CBF342
:104AE0000802D6F800A05AB971690134B4610029EE
:104AF00040F0C581BAF80830B3EB5B1F40F2028288
:104B00000AF138031344013FF361C6F810B07FF493
:104B100064AF06E001213046FFF77EF9002859D145
:104B2000B469D8F83420A2422FD098F8033098F80E
:104B3000010008F13807F3B10123394602F03EF9CC
:104B4000002840F0DE80D8F83410D8F82830D8F8A3
:104B5000202088F80300CB1A934298F801000AD26B
:104B600098F80230022B06D10A440123394602F09C
:104B700025F998F8010039460123224602F02EF863
:104B8000002840F0BA80C8F8344020220021F069A3
:104B900002F0EEFFF36906F12402934203D21A1DDC
:104BA0009542C0F09081326A1A60726A5A6096F833
:104BB00028201A7296F829205A7296F82A209A729A
:104BC00096F82B30F16903F0180301220B730020D3
:104BD00088F8032009B0BDE8F08F524673E586F8E7
:104BE00020200320012202210DF1200C84440130F9
:104BF0001CF814CC10E642F2200333840221002377
:104C0000DA1C082A6F543FF461AE191D0829AF540D
:104C10003FF45CAE5A1D082A6F543FF457AE991DFD
:104C20000829AF543FF452AE2944DA1D082A0F7008
:104C30003FF44CAE202144E67E22BEF1200F8DF8D9
:104C4000122000F0598106214FF0050C0720A7E53E
:104C50007E22BEF1200F8DF8112000F06981052120
:104C60004FF0040C06209BE505EB030BC2E500BFEB
:104C70004FECC44EFFFF1F007E22BEF1200F8DF8C7
:104C8000102000F0438104214FF0030C052087E53C
:104C90007E22BEF1200F8DF80F2000F03D81032110
:104CA0004FF0020C04207BE57E22BEF1200F8DF830
:104CB0000E2094D002214FF0010C032070E5062055
:104CC00009B0BDE8F08F7E22BEF1200F8DF80D20D7
:104CD00000F028819C460121022061E501200DF1B0
:104CE000200C7E2284448DF80C2086F8202002219E
:104CF00002461CF814CC01308EE54FF0FF33C8F8A3
:104D00003430012009B0BDE8F08F042009B0BDE8BF
:104D1000F08F4FF6FF7E71453FF4ABAE511C4A0059
:104D200030F81110D9704FEA112A83F804A0002935
:104D30003FF4A2AE71453FF49FAE024451885971D1
:104D40004FEA112A83F806A000293FF498AE714576
:104D50003FF495AE9188D9714FEA112A83F808A0E3
:104D600000293FF48FAE71453FF48CAED188597263
:104D70004FEA112A83F80AA000293FF486AE714554
:104D80003FF483AEB2F808E083F80EE04FEA1E214C
:104D9000D973BEF1000F3FF47BAE4FF6FF718E4525
:104DA0003FF476AEB2F80AE083F810E04FEA1E2A2C
:104DB00083F811A0BEF1000F3FF46DAE8E453FF4B5
:104DC0006AAEB2F80CE083F812E04FEA1E2A83F8CC
:104DD00013A0BEF1000F3FF461AE8E453FF45EAE0E
:104DE000B2F80EE083F814E04FEA1E2A83F815A00B
:104DF000BEF1000F3FF455AE8E453FF452AEB2F80F
:104E000010E083F816E04FEA1E2A83F817A0BEF1DF
:104E1000000F3FF449AE8E453FF446AE518A1976F5
:104E20004FEA112E83F819E000293FF440AE4FF607
:104E3000FF7E71453FF43BAE918A19774FEA112A04
:104E400083F81DA000293FF435AE71453FF432AE22
:104E5000D28A9A77511E89B24FF6FD7E120A7145A9
:104E6000DA773FF62AAE00EB0C02528B002A3FF4B1
:104E700024AE24E69946FFF766BB0720AAE6BAF8F7
:104E80000A30013B13EA5B237FF43AAE50460192AD
:104E9000FEF722FD012859D9431C3FF432AFDAF85E
:104EA0001C3098422ED2023B811E99423CBFBAF878
:104EB0000A40DAF83030019A706134BF01FB0434E3
:104EC0001446B4611CE696F820201A7096F821204A
:104ED0005A7096F822209A7096F82320DA7096F885
:104EE00024201A7196F825205A7196F826209A7176
:104EF00096F82720DA715AE686F82020072001224A
:104F0000022171E60023B361042063E686F82020C5
:104F100005200122022167E686F8202004200122D4
:104F2000022161E6022086F82020014601225BE68C
:104F300086F8202006200122022155E60A4401239A
:104F4000494601F03BFF98F8010068E5022041E680
:104F50002DE9F04F0B78026885B02F2B0D46804667
:104F600000920FD05C2B0DD0936983602B781F2BA0
:104F700017D88023404688F82B3005B0BDE8F04FA5
:104F8000FEF772BB2B461A782F2A1D4603F1010348
:104F9000F9D05C2AF7D00023C8F808302B781F2BF3
:104FA000E7D9DFF8A893DFF8A8B3009AD668002401
:104FB0000FE001359AB21F2A5CD92F2A5AD05C2AF9
:104FC00058D07F2A7CD97F2C76D826F814202B78CD
:104FD00001341F06EDD503F0E002C02A7ED003F0B5
:104FE000F002E02A00F0878003F0F802F02A63D193
:104FF00003F0070303206A7802F0C00180295BD127
:10500000A97801F0C00702F03F02802F42EA831323
:1050100052D101F03F01022841EA831308BF033552
:105020000AD0EA7802F0C001802905F1040543D1D5
:1050300002F03F0242EA8313C249A3F180028A428E
:105040003AD8A3F55842B2F5006F35D3B3F5803F97
:10505000B0D3A3F58032C3F3090309EA821243EA0D
:105060000B0313431A0C26F814209AB21F2A04F1DA
:105070000104A2D82B4619782F291D4603F10103FC
:10508000F9D05C29F7D01F2A8BBF202324234FF0AF
:10509000000A4FF0040A012C3ED0022C2FD04CB154
:1050A00006EB440232F8023D202B01D02E2B71D1A9
:1050B000013CF7D100233380062005B0BDE8F08F16
:1050C0009BB2222BF8D0A0482A2104E010F8011F3F
:1050D00000293FF478AF8B42F8D1EDE76A7802F00F
:1050E000C0018029E8D103F01F0302F03F0242EA29
:1050F00083130235A0E703F00F0302207BE77288D9
:105100002E2ACDD132882E2ACAD1002142F62E6213
:10511000B180A8F8202008E032882E2AC0D10021D2
:1051200042F22E027180A8F820204FF0203288F839
:105130002B30202388F82A30C8F82220C8F82620EF
:105140004046FFF749F898F82B30002840F0A88037
:105150005A07B2D498F80630DB0640F1088100986F
:10516000D8F810300178C3F3080200F13803134473
:105170000329D87E9A7E42EA002205D1597D1B7D03
:1051800043EA012342EA0342C8F80820D8F8002085
:105190002B780BE7002726F814703288202A06EBBC
:1051A000440340F0A080324632F8021F202907F164
:1051B0000107F9D04AF0030A33F8022D2E2A01D054
:1051C000013CF9D120224FF02031002388F828201B
:1051D00088F8292088F82A20C8F82010C8F8241058
:1051E0000193082236F81700013770B3202868D0E1
:1051F0002E2869D0934220D2A74267D07F2800F2A0
:1052000082802B2876D0DFF84CC12C21884271D0C7
:105210001CF8011F0029F9D1A0F1410189B2192917
:1052200003D8019941F002010191A0F1610189B215
:10523000192940F2A280C0B25FE00B2A00F08C80F6
:10524000A74245D04AF0030A42D998F82030E52B0E
:1052500004BF052388F82030082A03D1019B9B0056
:10526000DBB20193019A02F00C030C2B38D002F050
:105270000303032B34D01AF0020F07D1D40748BF21
:105280004AF0100A500748BF4AF0080A88F82BA0D5
:105290004046FEF7A1FF98F82B3000283FF458AFA6
:1052A00004287FF40AAF990603F0040261D5002AAE
:1052B0003FF46CAF8023002088F82B3005B0BDE8A8
:1052C000F08F4AF0030A8DE7A742FAD10B2A43D0A8
:1052D000019B9B00DBB2019327460B22082381E749
:1052E0004AF0020AD2E72E2A7FF466AF62E7F2465E
:1052F000002886D14AF0030A5F2008EB030101333E
:1053000081F820006EE7CDE9023201F00FFA4FF488
:10531000697101F039F9FF284AF0020EDDE9023225
:10532000E5D9511E8B4209D208EB03014FEA102C3C
:10533000F246013381F820C0C0B2DEE74AF0030A2A
:1053400013464FE77FFF1000D97201080000FF03EA
:1053500000DC00D8E572010898F82030E52B4AF00F
:10536000030A7FF47FAF052388F820307AE7052011
:10537000A3E6002A08BF05209FE60199203841F0E6
:105380000101C0B20191B8E72DE9F047056800239B
:1053900084B00B60002D00F0DD812C4602E03A2B3A
:1053A00000F0188114F8013B1F2BF8D8B84E96F87E
:1053B000065106EB8503D3F80841002C00F01C8150
:1053C0000C60237802F0FE0773B1607801F0FCFBFB
:1053D000C10709D4002F00F0598110F0040040F0FB
:1053E000188104B0BDE8F087E8B200236070237034
:1053F00001F0D0FAC20700F1038117B1430700F1B1
:10540000088100224FF0FF3504F13807E270656330
:1054100039460123607801F0E1FB002840F0F48078
:1054200094F8372294F8363260634AF6552143EAFD
:105430000220884240F0268194F83800EB2805D0FD
:1054400000F11801C9B2012900F2288194F86E1008
:10545000462907D194F86F10412903D194F87010B0
:10546000542918D094F88A10462940F0178194F8EE
:105470008B10412940F0128194F88C10542940F08F
:105480000D8194F88D10332940F0088194F88E1026
:10549000322940F00381002594F8440094F8431029
:1054A00041EA0021B1F5007F40F0EC8094F84F0014
:1054B00094F84E1051EA002109D1B4F85E7094F8C6
:1054C0005D1094F85C0041EA072140EA012194F85C
:1054D00048002162471E012FA07000F2D38094F88B
:1054E00045C01FFA8CF76781002F00F0CB800CF1CC
:1054F000FF3717EA0C0F40F0C58094F84A7094F813
:10550000498048EA072818F00F0FA4F8088040F0F7
:10551000B98094F84CE094F84B7057EA0E2709D103
:10552000B4F85A9094F8597094F858E047EA09276B
:105530004EEA072794F8479094F846E05EEA092E71
:1055400000F0A08001FB00F00EEB181981444F45DC
:10555000C0F09880DFF840A1A7EB0907B7FBFCFC7F
:105560000CF1FF37574500F28D804FF6F57AD445A0
:10557000AE44A9440CF1020700F2DD8140F6F57358
:105580009C45E761C4E9095EC4F8309000F20682E8
:10559000B8F1000F76D007EB4703704407F001071E
:1055A000E06207EB5307012207F2FF17B1EB572F19
:1055B00068D34FF0FF33C4E904338021217133886D
:1055C0003449227001339BB200203380E380E160D4
:1055D000A06106E7AB1C9C4240F0BC802B78302BCE
:1055E00040F0B8802A4E0460002506EB8503D3F80E
:1055F0000841002C7FF4E4AE0C2004B0BDE8F08735
:10560000032004B0BDE8F0870120656304B0BDE865
:10561000F0870A2004B0BDE8F087656394F837226C
:1056200094F836324AF6552143EA0220884229D1BD
:1056300094F83810EB2903D01831C9B2012921D8C8
:1056400094F86E10462908D194F86F10412904D1BE
:1056500094F8701054293FF41FAF94F88A1046292B
:1056600010D194F88B1041290CD194F88C10542946
:1056700008D194F88D10332904D194F88E10322972
:105680003FF40AAF0D2004B0BDE8F0873846A8E625
:105690000001002004010020F4FFFF0F94F8FA51EC
:1056A0004DB1B4F800C294F8FF1194F8FE5141EAEC
:1056B0000C2145EA012594F80A12002900F0F68031
:1056C000B4F810E294F80FC294F80E124CEA0E2CC3
:1056D00041EA0C2C94F81A12CDF804C0002900F00D
:1056E000E380B4F820E294F81FC294F81E124CEA4A
:1056F0000E2C41EA0C2C94F82A12CDF808C049B1BE
:10570000B4F830E294F82FC294F82E124CEA0E2C22
:1057100041EA0C210391FDB9019D95BB029D002D2D
:1057200076D1039D002DADD04FF0FF3800234545C5
:10573000E370C4F834803FF471AF394601232A4640
:10574000607801F04BFA00283FF467AFC4F834806A
:10575000012046E60B2044E64FF0FF380021454586
:10576000E170C4F8348000F0B18001232A46394644
:10577000607801F033FA002800F09A80C4F8348091
:10578000CAE74FF0FF3800234545E370C4F8348082
:1057900009D001232A463946607801F01FFA002813
:1057A00040F0C680656394F8372294F836324AF6A2
:1057B000552143EA02208842B0D194F83810EB29F1
:1057C00003D01831C9B20129A8D894F86E1046291F
:1057D00008D194F86F10412904D194F8701054291D
:1057E0003FF45AAE94F88A10462997D194F88B105A
:1057F000412993D194F88C1054298FD194F88D10AD
:1058000033298BD194F88E1032293FF445AE85E7C9
:105810004FF0FF3800234545E370C4F8348008D0CA
:1058200001232A463946607801F0D8F900287CD156
:10583000656394F8372294F836324AF6552143EAE4
:10584000022088427FF46DAF94F83810EB2904D021
:105850001831C9B201293FF664AF94F86E10462999
:1058600008D194F86F10412904D194F8701054298C
:105870003FF412AE94F88A1046297FF452AF94F8A0
:105880008B1041297FF44DAF94F88C1054297FF48C
:1058900048AF94F88D1033297FF443AF94F88E10FD
:1058A00032293FF4F9AD3CE78C4624E78C4611E7FA
:1058B00094F8372294F83632656343EA02204AF6B8
:1058C000552188427FF428AF94F83800EB2805D0A2
:1058D00000F11801C9B201293FF61EAF94F86E100D
:1058E000462908D194F86F10412904D194F870101A
:1058F00054293FF4D1AD94F88A1046297FF40CAFB7
:1059000094F88B1041297FF407AF94F88C10542938
:105910007FF402AF94F88D1033297FF4FDAE94F834
:105920008E1032293FF4B8ADF6E6C4F83480F8E6BC
:10593000C4F83480F2E694F863C094F86200E7613A
:1059400050EA0C20C4E9095EC4F830907FF49AAEA6
:10595000B8F1000F7FF496AEB4F8668094F865E075
:1059600094F864C0B80000F2FF104EEA08274CEA31
:105970000727B1EB502FE762FFF484AE94F869007B
:1059800094F8681041EA002180274FF0FF30012988
:10599000C4E9040027710AD0032210E6B8F1000F11
:1059A0003FF470AE7044E0627F000222FCE5606B61
:1059B000691C81423BD143EA02234AF65522002169
:1059C00093422171E8D1608F94F8392094F83830EF
:1059D0001C4942EA002243EA02238B42DCD1B4F89C
:1059E0001E0294F81D2294F81C3201F1FF5101F5BA
:1059F000005142EA0022203143EA02238B42CBD1FC
:105A000094F82532B4F82612B4F8225294F8210200
:105A100094F8202243EA012194F8243240EA052038
:105A200042EA002243EA0123C4E90432B4E72046F3
:105A3000FDF748F80028AFD194F8372294F83632B1
:105A4000B9E700BF5252614110B582B0CDE90010F4
:105A500061B30C4601E03A2B18D014F8013B1F2B20
:105A6000F9D8134B93F8061189005818D0F808019B
:105A700008B100240470019808B1002404700B449C
:105A8000C3F808015AB9104602B010BD11F8023B24
:105A90008C420BD1302B09D1054B0021E4E70022C9
:105AA00001A96846FFF770FC02B010BD0B20EBE7C0
:105AB000000100202DE9F04790B0019148B302F0B9
:105AC0003F070446154603A93A4601A8FFF75CFCC8
:105AD000064628B100232360304610B0BDE8F087A9
